:020000040000fa
:080000000001040000000000f3
:020000040000fa
:100200000f8021000079220000018800000000001a
:100210000a00070011000700000020000000e000b5
:10022000020032000000020000000000602c02000a
:10023000000000000040da000000fe004440a90079
:10024000000020000000e000030032000000200059
:10025000a00188004440a8000000060080e72200ba
:10026000010020001500370062004000e0804800d7
:10027000910188009001ba0062004000e0804800cf
:10028000910188009002ba0062004000e0804800be
:100290000002eb006028e10004003a000059eb0086
:1002a0008301e900fdff3e00040037006128e10002
:1002b000010032000082eb00050007009101880078
:1002c0001001ba000200e000e7ff3a00000005005c
:1002d000910188008002780062004000e0804800c0
:1002e0003559ba008301e900080032002559ba00e7
:1002f0008301e900050032000400e000f4ff320051
:1003000015d9ba008301e900f1ff3a0000000600a8
:10031000889fbe008a9fbe00010578000100e000b2
:100320000400350008003c000000e000200032001e
:100330000500370060001000e080180002003b005c
:1003400001f02c001a0037000004be006011b80054
:100350006b0920000982cf00020039000882cf001b
:100360000441b000694252000e00320008003b0018
:1003700082817100610164008904d1000884d30086
:100380008b05e8000442e800f9ff3a000500370059
:100390000804440089844c008b05e9000442e9000c
:1003a000fbff3a00140107000af0a70001f0a000cb
:1003b0004f05be004f04be0000000600889fbe002f
:1003c0008a9fbe008c1f780031010700380133007e
:1003d00003866c006450e1002e0032006420e100ce
:1003e000330032006150e1002f0032006120e10053
:1003f0003100320085855500eb07b0000900200070
:1004000008042000050037000804440089844c00db
:100410000a0031000603430087834b0000015300ac
:1004200081815b00f8ff33000203be000800a000da
:100430000804440089844c00f6ff3900c639dd0009
:100440008301730001003200130020008904d100f1
:100450000884d3000998a300050032000800a70013
:100460000300a0008904d1000884d3008b05e800b4
:100470008904d1000884d3000001eb000281d2007e
:10048000dd00070001f0a1000cf0a70001f0a000c2
:10049000100137006420e100120132000801be00a3
:1004a0000200be00f7ff37006120e1000d013200bd
:1004b0006000b800f3ff37000000200001f82700bb
:1004c000f0ff37000081eb00090137000001eb006d
:1004d00007013700889fbe008a9fbe008c1f7800ee
:1004e000eb000700f200330003866c006450e1006b
:1004f000240032006420e100270032006150e10056
:10050000220032006120e100210032008b85420090
:10051000eb07b1000134b800003ab800080442000b
:1005200089844a00013ab8000030b8008880400051
:1005300009014a00040033000000400081804800a7
:10054000020149008b05e900c909dd008301700043
:100550000100320013002000c814de004814dd0042
:100560004709de001200b200c808de0008847000ef
:10057000a100070001f0a1000cf0a70001f0a0000d
:10058000d40037006120e100d60032000801be002f
:100590000200be00f7ff37006150e100fcff3a00a7
:1005a000d000370003f0a200889fbe008a9fbe00e3
:1005b0008c1f7800b6000700bd0033006450e100d6
:1005c0004f0032006420e1005200320003826c00d0
:1005d00007003b000905d0000306d000820f54003d
:1005e0000c065d000200390002003200890178002b
:1005f000030678008582550004003d000003fd00dd
:100600008103fd008502ea008b854200840f7200a1
:1006100002003b0060001000e08018006011b8008c
:100620000005eb007a28e1000a0039000600780096
:10063000c75ddd00f707b200878075002d00370029
:10064000828171000a017800610560008180d1001b
:100650000080d3008502e900f9ff3b00060440005a
:100660008784480002003b0060041400e0841c0002
:100670000988a300070032008a817100828171001d
:10068000610164008904d1000884d3008b05e8006f
:10069000170037000978a30013003a000b00e000b0
:1006a000130034008b05e9000804440089844c00e1
:1006b0000a4474000978a3000d003a000b00e00022
:1006c000070034008b05e9000804440089844c00cd
:1006d00001003a000b0020000978a300f7ff320068
:1006e0000001eb0002003700828171000a017800ee
:1006f000410007000cf0a70001f0a00075003700d2
:100700006420e10002003a00838f6c007500330022
:100710000801be000200be006e003700f4ff2f008b
:10072000dc0037000001eb00f50007000400320098
:100730000200200003f8230001f0a70099ff070042
:10074000000006000001be00140107000470a700ad
:1007500003f0a1006509b100160032000d0035005c
:100760006828e10006003500f0ff2f00f1ff2700a8
:100770000300e00013003b0001002800000005001a
:1007800000004000818048008502e900fcff3a003b
:1007900008003700f88f420002003c008000eb00a8
:1007a000000005008100d1000080d3008502e80030
:1007b000fcff3a000300e00002003b006000100074
:1007c000e08018000000060014002000b10037008f
:1007d0000001eb00ca000700040032000200200004
:1007e00003f8230001f0a6006fff070000000600d9
:1007f00004002000a7003700810020006180550020
:100800000b003d000b00200061fe2f000100e10005
:100810001d00340082817100610164008904d100ef
:100820000884d3000000e800faff3a0071002000bd
:1008300061006400030070000200600009003200e3
:1008400061044400e0844c000988a50005003200e2
:100850008b05e8006808e10002003a008904d10035
:100860000884d300f20f20000258e10005003d008b
:10087000c75ddd00f907b2008980750008007800c7
:10088000000006000bf827008b0078000000050030
:100890000004be00c10007000003be000405be0046
:1008a0000200be00bd000700844f75000000060076
:1008b0000200be006450e100050036006420e10043
:1008c000020036000968a30001003a000800be00db
:1008d0000160a0004f0678004f05be004f04be0027
:1008e00000000600f0ff2f00f1ff2700f9ff37009e
:1008f000889fbe008a9fbe008c9fbe008205780044
:100900000004be00a50007000800be006420e1004e
:100910000700390002003a00f1ff2700f0ff2f0026
:100920000160a00012022000728588005500370087
:100930006120e10003003a000b00a70001f823004a
:100940005000370001f0a100020021009364240050
:100950009dff07000800be0004003500b2fd200026
:10096000930c2400a20007000004be000005eb0069
:100970000b00a6004f0dde0001f0a1000004be0038
:1009800032982f0023ea2300d2fe07000001eb007b
:1009900003f023000b00a70003f8230002ff070069
:1009a00068ff07000000a7000a00a20058fe070029
:1009b0000b00e000030032000200200003f02300df
:1009c000f8fe070001f0a2000006be0002002000b1
:1009d00093042400bffe07000801be00f2fe0700da
:1009e000809fbe000c00be0022a22a00d3a72300d5
:1009f000b8fe07004f01be00ebfe07000004be007a
:100a000001f0a10002002000039823006eff070000
:100a10000800be00190035000001be00adfe070051
:100a20000006be00b2c52900e3622300a9fe07004c
:100a300022222b00f3942b00dbfe07000c01be00ea
:100a4000a4fe0700e273280083c02300d6fe07003f
:100a50000c01be009ffe070042aa2a00a3e22b0061
:100a6000d1fe07000c01be009afe07000801be007f
:100a700098fe07000801be00cbfe07000a00a70091
:100a800001f0a2004f06be004f05be004f04be009d
:100a900000000600889fbe008a9fbe00841f780069
:100aa0007bff07004f00780011003300f0ff2f009c
:100ab000838f6c0006003b00040565000a00a70058
:100ac0000800370009f0a6001000200008003700d9
:100ad000820f5400838f5c00030039001000200057
:100ae00001003e000000200009f0a7000000ea001d
:100af0004f05be004f04be000000e00000000600ed
:100b0000889fbe008a9fbe000003be00230007002e
:100b10008505780082815200020020006220e100f9
:100b200004003a00f307b100040035007718e10033
:100b3000040035000600be00140037006000b80055
:100b40000f003700f50f2000faff2f008502d100bb
:100b50000a85d3008301e900fcff3b008184620029
:100b600000046500890f7400f2ff32008582ea00fc
:100b70000a85ea0081846200000465001eff070008
:100b800007f0a70001f0a0000081eb000200e000e8
:100b90004f05be004f04be0000000600c70ade007d
:100ba000f107b200f50fb20008003200e1cf4200b9
:100bb000020032000170a00024000500810f7000c7
:100bc000010032000408050044000500810f700098
:100bd00002003a00140005008502e9000000400010
:100be00081c04800fcff3b000170a000240005000c
:100bf0000400200000003700889fbe008a9fbe00ce
:100c00008c1f78004f26dd0021ff070028ff3300ee
:100c10006120e100430032006250e10041003e00eb
:100c20003e0039006420e1003c003200058255009e
:100c30000f003b000402e80038003a00800f530028
:100c4000818f5b00350034000800be0003f0a10076
:100c500001f0a60003f0a0000cf0a70052fe070070
:100c60001cff37000603430087834b000c464600f9
:100c70000005530081855b00020033000a03be00bb
:100c80000c00a0000402e900f6ff3b008505780097
:100c90000602430087824b0004003a006000b8005f
:100ca00009f0a70001f0a0000aff3700000252007f
:100cb00081825a000704e000040033000603430069
:100cc00087834b008b05e900faff370009057800a0
:100cd0000604be000203be006011b800c6fe070095
:100ce000e00f5200e08f5a000700350002003c0080
:100cf0000c08a300040032000601be0003f0a000af
:100d00000cf0a70028fe07000a85680001f0a1008a
:100d10000af0a70001f0a000eefe37000800be00b8
:100d2000ecfe3700100220000cf0a6007085880051
:100d3000ecfe3700f4874700889fbe008a9fbe0004
:100d40008c9fbe008e1f7800d1b79f0002047800f0
:100d5000110020008008dd002200200011000900a1
:100d60008200d800000578000000200001f8230070
:100d70001d010700dfb09700800878000000eb003d
:100d800090009800648740006150b90060fd070042
:100d90000001be00b0fd20009104240087fd070083
:100da0000006be00c7fd0700e0b79f00f1b79f0037
:100db0000800e000410032000c00be00c3fd070047
:100dc000b0b79f00c1b79f0090b79f00a1b79f0029
:100dd0000a80e900320033006fb69700ffb6970033
:100de0008000eb0081b79f000a05e9008abf9f00e1
:100df0000c00be00fc000700000f78001fb0970039
:100e0000afb09700f800070010079800640747008c
:100e10006fb19700ffb197000c00be00adfd070059
:100e20000004be001fb19700afb197003fb097001c
:100e3000cfb09700a7fd07000001be000800be006c
:100e4000d8fd07000005be000c01be003fb09700b2
:100e5000cfb097009ffd07000004be006fb1970060
:100e6000ffb197001fb09700afb0970099fd070042
:100e70000001be000800be00cbfd070090b79f0038
:100e8000a1b79f000fb097000000e80080b79f0057
:100e90000a06be008fb89700810f5000d4ff3a00b9
:100ea0005fb097004f0778004f06be004f05be00a9
:100eb0004f04be004f01b100000006000c00be0050
:100ec00082fd070001f0a200b0b79f00c1b79f00ec
:100ed00090b79f00a1b79f00bdff3700889fbe005d
:100ee0008a9fbe008c9fbe00800478008106780037
:100ef0000000e900cf80de0005fd07000001be0014
:100f0000b0fd2000910c24002cfd07000005be0060
:100f10000900e00005003c000d0078004f06be000f
:100f20004f05be004f04be00000006000d0678000d
:100f30000004eb006140b900f5fc07000001be00b1
:100f40000a00be0063fd07005efd070042c12500e8
:100f5000c3ee2b005ffd0700621f2d0093f02300fe
:100f600091fd0700a0000700001e78000804e800bb
:100f7000888f5400e8ff32006140b900e4fc0700ac
:100f80000001be000a00be0052fd07004dfd070033
:100f900042c12500c3ee2b004efd0700621f2d004d
:100fa00093f0230080fd07008f000700001e7800eb
:100fb0000804e800888f5400deff3a00d6ff3700af
:100fc0004400f800040f200024028800811f7800ec
:100fd0000000e90003027800008008000200000021
:100fe000b20278001301c0003100cd004f0078003c
:100ff0004400f900000006004400f800040f20003f
:1010000024028800811f78000000e90000800800a9
:101010000300000032027800b30278001301c00020
:101020003100cd004f0078004400f90000000600b8
:10103000889fbe008a9fbe008c9fbe004400f800bf
:10104000070f2000270288003400f80007f02f0067
:101050000338e10004003200270280004700b3009b
:1010600027028800a3018800811f78001900200052
:10107000804cdd0013002000020478008006780018
:101080008904d100424edd00010578000302e90029
:1010900004800800170000008a0546004218dd00a1
:1010a0000902e900048008001000000000000000b0
:1010b0004620c3003b025200df35c1000804400057
:1010c0001381c200ab825200264dc5003e85c4008c
:1010d000bb00cd00bb80cd003a00ca002a80ca0008
:1010e0000700c9000580c900ba00cd00ba80cd0054
:1010f0000a054600020478008301d0008d06e9004d
:10110000dfff3c004f0078003400f9004400f90094
:101110004f06be004f05be004f04be000000060093
:101120004600f8005000f80002202000320288003b
:1011300002002800130020008019dd0002817100e8
:10114000820288000100780001017800260020005a
:10115000470020008301e900038008000700000029
:101160000110e100040034001102be009208780072
:10117000e2307b000489be008780400012197800ad
:101180005000f9004600f90000000600821f7800b8
:10119000849fbe008a1f78004400f800040f2000de
:1011a00024028800010578000601c3000080e900e0
:1011b0000080080003000000000000000505f000aa
:1011c0000401f1003200cd000505f0001001f1002e
:1011d0003200cd004400f9004f0578004f02be00f8
:1011e0004f007800000006000c00fa00889fbe0047
:1011f0008a9fbe008c9fbe000004be00020020003b
:1012000003702400b3fc0700c0b79f00d1b79f0054
:101210006011b8000800be0040fd07000000e000bb
:101220003e0035004fb09700dfb097003dfd07004e
:1012300044fd07000006be0035fc07000005be00a7
:101240000200200003f02300a2fc07000004be00ff
:1012500034fd07000001be000800be00d1fc0700fd
:101260000001be00d0fc070036fd0700e0b79f007c
:10127000f1b79f000a01be004fb09700dfb09700a2
:10128000c8fc07000004be000200200003f0230099
:1012900022fd07000000e0001100340002002000e1
:1012a00003f823000a00be00bffc070025fd07006d
:1012b0000006be00f2ff2700f0ff2700800f560057
:1012c000e08f5e0057003400020078004f06be0039
:1012d0004f05be004f04be000080fa00000006006b
:1012e0000200200003f023000800be0036fd0700c6
:1012f0000000e000efff3a006fb097000000e00050
:10130000e6ff3a00f2ff2700f0ff2700800f5600ab
:10131000e08f5e00ecff3c00420037004fb09700ca
:10132000dfb097002afd070006fd07000006be009b
:10133000f7fb07000005be000001be004fb097009c
:10134000dfb097002afd07000000e000080032002f
:101350000200200003f823000a00be0091fc0700f1
:10136000f8fc07000006be00e9fb07000005be0010
:101370000200200003f023000a00be0055fc070015
:101380000004be00e7fc07000001be000800be002c
:1013900084fc07000001be0083fc0700e9fc070095
:1013a00080bf9f0091bf9f000a01be004fb0970011
:1013b000dfb097007bfc07000004be0002002000a5
:1013c00003f02300d5fc07000000e00009003c000a
:1013d0000200200003f023000800be00fafc070012
:1013e0000000e00009003a000fb897000000e0009c
:1013f000060032000200200003f823000a00be00ad
:1014000069fc0700cffc07000006be0002002800b0
:1014100000002800f1ff2f00800f5600818f5e0032
:10142000a9ff35000c0078004f06be004f05be0036
:101430004f04be000080fa0000000600a8ff37003d
:020000040000fa
:0200000401f009
:04000000f3ff00000a
:020000040000fa
:0200000401f009
:04000400ff7f00007a
:020000040000fa
:0200000401f009
:04000800fcff0000f9
:020000040000fa
:0200000401f009
:04001400ffff0000ea
:020000040000fa
:10000800a02e0000a02e0000a02e0000a02e0000b0
:10001800a02e0000a02e0000a02e0000a02e0000a0
:10002800a02e0000a02e0000a02e0000a02e000090
:10003800a02e0000a02e0000a02e0000a02e000080
:10004800a02e0000a02e0000a02e0000402e0000d0
:10005800a02e0000a02e0000a02e0000a02e000060
:10006800a02e0000a02e0000a02e0000a02e000050
:10007800a02e0000a02e0000a02e0000a02e000040
:10008800a02e0000a02e0000a02e0000a02e000030
:10009800a02e0000a02e0000a02e0000a02e000020
:1000a800a02e0000a02e0000a02e0000a02e000010
:1000b800a02e0000a02e0000a02e0000a02e000000
:1000c800a02e0000a02e0000a02e0000a02e0000f0
:1000d800a02e0000a02e0000a02e0000a02e0000e0
:1000e800a02e0000a02e0000a02e0000a02e0000d0
:0800f800a02e0000a02e000064
:020000040000fa
:10010800a02e0000a02e0000a02e0000a02e0000af
:10011800a02e0000a02e0000a02e0000a02e00009f
:10012800a02e0000a02e0000a02e0000a02e00008f
:10013800a02e0000a02e0000a02e0000a02e00007f
:10014800a02e0000a02e0000a02e0000402e0000cf
:10015800a02e0000a02e0000a02e0000a02e00005f
:10016800a02e0000a02e0000a02e0000a02e00004f
:10017800a02e0000a02e0000a02e0000a02e00003f
:10018800a02e0000a02e0000a02e0000a02e00002f
:10019800a02e0000a02e0000a02e0000a02e00001f
:1001a800a02e0000a02e0000a02e0000a02e00000f
:1001b800a02e0000a02e0000a02e0000a02e0000ff
:1001c800a02e0000a02e0000a02e0000a02e0000ef
:1001d800a02e0000a02e0000a02e0000a02e0000df
:1001e800a02e0000a02e0000a02e0000a02e0000cf
:0801f800a02e0000a02e000063
:020000040000fa
:10144000c642a900c662a900c682a900c6a2a90018
:10145000c6c2a900c6e2a900c742a900c762a90086
:10146000c782a900c7a2a900c7c2a900c7e2a900f4
:10147000cda2a800cdc2a800d202a900d222a90004
:10148000d242a900d262a900d282a900d2a2a900a8
:10149000d2c2a900d2e2a900d302a900d322a90096
:1014a000d342a900d362a900de02a900de22a9006e
:1014b000de42a900de62a900de82a900dea2a90048
:1014c000dec2a900e402a900e422a900e442a900c6
:1014d000e462a900e4c2a900e582a900e5a2a9008e
:1014e000e5c2a900e5e2a900d502a900e642a900eb
:1014f000e662a900e0c2a900e042a900e0a2a900ba
:10150000e062a900e082a900c9e2a900c9c2a9005d
:10151000c9a2a900c982a900c962a900c942a9003b
:10152000c8a2a900c882a900c862a900c842a9002f
:10153000c8e2a900c8c2a900e6c2a900e7e2a90062
:10154000e7a2a900e782a900e7c2a900e602a90074
:10155000e622a900e022a900e002a900d4e2a90045
:10156000d4c2a900d4a2a900d482a900d462a9003f
:10157000d442a900d422a900d402a900d562a900ae
:10158000d542a900d522a90000000600cfc2bf00a5
:101590004500de0061006000f12c200091407800e1
:1015a000c508de00e2806000010040000000060087
:1015b000c07f21006085880001102000e07f2100ad
:1015c0000008eb00640050008100e900fcff3a00d5
:1015d000c03f210060858800000006008001eb000c
:1015e0000000e000050034000001eb00b181410083
:1015f0000201e800820f5000fcff3a00030078006f
:1016000000000600d422ef00e622ef00e022ef0007
:10161000c822ef000000400021082100e08078008f
:101620000100e00001003400e6c2a800e18f500094
:1016300001003400e7e2a800e28f5000010034000e
:10164000e7a2a800e38f500001003400e782a80061
:10165000e48f500001003400e7c2a800e68f50007c
:1016600001003400e602a800e98f500001003400b8
:10167000e622a800ed8f500001003400e022a8000f
:10168000f18f500001003400e002a800f88f5000f4
:1016900001003400d4e2a80000022000808f500036
:1016a00001003400d4c2a800c0022000808f500086
:1016b00001003400d4a2a800b0032000808f5000a5
:1016c00001003400d482a80000052000808f500063
:1016d00001003400d462a800d0062000808f5000a2
:1016e00001003400d442a80030092000808f50004f
:1016f00001003400d422a800700c2000808f50001c
:1017000001003400d402a800d0102000808f5000c7
:1017100001003400d562a800a0162000808f500080
:1017200001003400d542a800901e2000808f500098
:1017300001003400d522a80000000600d422ef00ea
:10174000e622ef00e022ef00c822ef008000400018
:10175000a0002100610078000000e00001003200dc
:10176000e6c2a800e10f500001003600e7e2a80041
:10177000e20f500001003600e7a2a800e30f50007e
:1017800001003600e782a800e40f50000100360097
:10179000e7c2a800e50f500001003600e602a800ed
:1017a000e60f500001003600e622a800e70f5000c7
:1017b00001003600e022a800e80f500001003600ca
:1017c000e002a800e90f500001003600d4e2a800b2
:1017d000ea0f500001003600d4c2a800eb0f500001
:1017e00001003600d4a2a800ec0f50000100360022
:1017f000d482a800ed0f500001003600d462a8008a
:10180000ee0f500001003600d442a800ef0f500048
:1018100001003600d422a800f00f5000010036006d
:10182000d402a800f10f500001003600d562a800d4
:10183000f20f500001003600d542a800f30f50000f
:1018400001003600d522a8002003210061007800a5
:10185000e10f500008003200e20f500002003a0091
:10186000e7e2a80000000600e30f500004003a0081
:10187000e7a2a80000000600e6c2a80000000600db
:10188000e40f500002003a00e782a80000000600c2
:10189000e50f500002003a00e7c2a8000000060071
:1018a000e60f500002003a00e602a8000000060021
:1018b000e70f500002003a00e622a80000000600f0
:1018c000e80f500002003a00e022a80000000600e5
:1018d000e90f500002003a00e002a80000000600f4
:1018e000ea0f500002003a00d4e2a800000006000f
:1018f000eb0f500002003a00d4c2a800000006001e
:10190000ec0f500002003a00d4a2a800000006002c
:10191000ed0f500002003a00d482a800000006003b
:10192000ee0f500002003a00d462a800000006004a
:10193000ef0f500002003a00d442a8000000060059
:10194000f00f500002003a00d422a8000000060068
:10195000f10f500002003a00d402a8000000060077
:10196000f20f500002003a00d562a8000000060005
:10197000f30f500002003a00d542a8000000060014
:10198000f40f500001003a00d522a8000000060024
:101990002800fa002308210082fd2f000f014100da
:1019a000a40a2100930078000100e00091003400b7
:1019b0001000200000097800808f500002003400e1
:1019c0002000200000097800e28f5000020034005f
:1019d0003000200000097800e38f5000020034003e
:1019e0004000200000097800e48f5000020034001d
:1019f0005000200000097800e68f500002003400fb
:101a00006000200000097800e98f500002003400d7
:101a10007000200000097800ed8f500002003400b3
:101a20008000200000097800f18f5000020034008f
:101a30009000200000097800f88f50000200340068
:101a4000a00020000009780000022000808f5000d4
:101a500002003400b000200000097800c00220001d
:101a6000808f500002003400c00020000009780080
:101a7000b0032000808f500002003400d00020000e
:101a80000009780000052000808f5000020034001b
:101a9000e000200000097800d0062000808f500070
:101aa00002003400f0002000000978003009200016
:101ab000808f5000020034000001200000097800ef
:101ac000700c2000808f50000200340010012000b4
:101ad00000097800d0102000808f500002003400f0
:101ae0002001200000097800a0162000808f5000ff
:101af000020034003001200000097800901e200010
:101b0000808f50000200340040012000000978005e
:101b10008381e8000281e800848f5100a1ff3a0030
:101b2000308080004180800002052000820f50003c
:101b3000e08f58001200340083fd2f008f81410098
:101b4000a20021000f02780013007800920f5000cd
:101b5000260036000009780080007800810f5000d0
:101b6000010031000109e9008381e8000281e800f9
:101b7000848f5100f4ff3a000630ef000830ef0088
:101b80001080800021808000421f2000820f5000c2
:101b9000e08f580011003400a3002100220321002f
:101ba0002403210013007800920f50000d0036002e
:101bb0000009780080007800810f5000010031009a
:101bc0000109e9008381e8000281e800830f5200e7
:101bd000f4ff3a000230ef000430ef000080fa001a
:101be0000000060092007800f3ff370092007800b2
:101bf000daff37000009eb0077ff3700d422ef004f
:101c0000e622ef00e022ef00c822ef0000004000d3
:101c1000a1002100608078000000e0000100320097
:101c2000e6c2a800e10f500001003600e7e2a8007c
:101c3000e20f500001003600e7a2a800e30f5000b9
:101c400001003600e782a800e40f500001003600d2
:101c5000e7c2a800e50f500001003600e602a80028
:101c6000e60f500001003600e622a800e70f500002
:101c700001003600e022a800e80f50000100360005
:101c8000e002a800e90f500001003600d4e2a800ed
:101c9000ea0f500001003600d4c2a800eb0f50003c
:101ca00001003600d4a2a800ec0f5000010036005d
:101cb000d482a800ed0f500001003600d462a800c5
:101cc000ee0f500001003600d442a800ef0f500084
:101cd00001003600d422a800f00f500001003600a9
:101ce000d402a800f10f500001003600d562a80010
:101cf000f20f500001003600d542a800f30f50004b
:101d000001003600d522a800000006002800fa00d5
:101d10002308210082fd2f000f014100a40a2100a9
:101d2000930078000100e0007800340010002000eb
:101d300000097800808f500002003400200020004d
:101d400000097800e28f50000200340030002000cb
:101d500000097800e38f50000200340040002000aa
:101d600000097800e48f5000020034005000200089
:101d700000097800e68f5000020034006000200067
:101d800000097800e98f5000020034007000200044
:101d900000097800ed8f5000020034008000200020
:101da00000097800f18f50000200340090002000fc
:101db00000097800f88f500002003400a0002000d5
:101dc0000009780000022000808f500002003400db
:101dd000b000200000097800c0022000808f500071
:101de00002003400c000200000097800b003200089
:101df000808f500002003400d000200000097800dd
:101e000000052000808f500002003400e000200018
:101e100000097800d0062000808f500002003400b6
:101e2000f00020000009780030092000808f500069
:101e3000020034000001200000097800700c20002e
:101e4000808f50000200340010012000000978004b
:101e5000d0102000808f50000200340020012000ac
:101e600000097800a0162000808f50000200340086
:101e70003001200000097800901e2000808f500063
:101e80000200340040012000000978008381e8004e
:101e90000281e800848f5100a1ff3a003080800069
:101ea0004180800002052000820f5000e08f580022
:101eb0001200340083fd2f008f814100a200210019
:101ec0000f02780013007800920f50000d003600ca
:101ed0000009780080007800810f50000100310077
:101ee0000109e9008381e8000281e800848f510044
:101ef000f4ff3a000630ef000830ef000080fa00ef
:101f00000000060092007800f3ff37000009eb00a4
:101f100090ff37002508210005017800a405210065
:101f200084007800a30a210012007800910f50006d
:101f300001003400800878000281e8008180e80018
:101f4000830f5100f8ff3a0030808000418080000c
:101f5000421f2000820f5000e08f5800080034001c
:101f60000000eb0081022000653278000080e8006c
:101f7000810f5000fcff3a000630ef000830ef0000
:101f800000000600e10f500039003200e30f50005e
:101f9000010032000000060030408000b08488005c
:101fa00040408000c0848800a08020008000eb00ba
:101fb000e2802000b0804000820f5000fdff3a0018
:101fc000d18488008000eb0022812000b080400096
:101fd000820f5000fdff3a00e18488008000eb0092
:101fe00082812000b0804000820f5000fdff3a0047
:101ff000f18488008000eb0002822000b080400065
:10200000820f5000fdff3a00018588008000eb0040
:10201000a2822000b0804000820f5000fdff3a00f5
:10202000118588008000eb00a2832000b080400072
:10203000820f5000fdff3a00218588008000eb00f0
:10204000c2842000b0804000820f5000fdff3a00a3
:10205000318588008000eb0062862000b08040005f
:10206000820f5000fdff3a00418588000000060005
:102070001040800010848800204080002084880068
:1020800030408000308488004040800040848800d8
:10209000a08020008000eb00e2802000b0804000a3
:1020a000800f5100fdff3a0051848800e08020003d
:1020b0008000eb0022812000b0804000800f5100a2
:1020c000fdff3a0061848800208120008000eb0041
:1020d00082812000b0804000800f5100fdff3a0057
:1020e00071848800808120008000eb000282200043
:1020f000b0804000800f5100fdff3a0081848800cd
:10210000008220008000eb00a2822000b08040000e
:10211000800f5100fdff3a0091848800a0822000ca
:102120008000eb00a2832000b0804000800f5100af
:10213000fdff3a00a1848800000006000001eb00ca
:1021400001e0200080002000fafa070001a0200032
:102150000020200061fb07000300240002a02000f3
:10216000820078000020200095fb0700c07f21003e
:102170006085880001102000e07f21000008eb004e
:10218000640050008100e900fcff3a00c03f2100dc
:102190006085880001007800a6052100250821003f
:1021a000a4002100230321008202200001307b00d3
:1021b00001b07a0001307a0001b079000080e800b7
:1021c000820f5000f9ff3a000630ef000830ef00b0
:1021d0000230ef000430ef000040210060858800ed
:1021e0000180880010c0b300570e3700d422ef00e2
:1021f000e622ef00e022ef00c822ef0000034000db
:1022000025082100e6807a000100e000010034008a
:10221000e6c2a800e18f500001003400e7e2a80008
:10222000e28f500001003400e7a2a800e38f5000c5
:1022300001003400e782a800e48f50000100340060
:10224000e7c2a800e68f500001003400e602a800b3
:10225000e98f500001003400e622a800ed8f500005
:1022600001003400e022a800f18f5000010034008a
:10227000e002a800f88f500001003400d4e2a8006a
:1022800000022000808f500001003400d4c2a8005a
:10229000c0022000808f500001003400d4a2a800aa
:1022a000b0032000808f500001003400d482a800c9
:1022b00000052000808f500001003400d462a80087
:1022c000d0062000808f500001003400d442a800c6
:1022d00030092000808f500001003400d422a80073
:1022e000700c2000808f500001003400d402a80040
:1022f000d0102000808f500001003400d562a8006b
:10230000a0162000808f500001003400d542a800a4
:10231000901e2000808f500001003400d522a800bc
:1023200022082100a405210084007800a30a2100ce
:1023300012007800910f50000100340080087800ee
:102340000281e8008180e800828f5100f8ff3a00a6
:102350003080800041808000421f2000820f5000aa
:10236000e08f5800080034000000eb0081022000dc
:10237000653278000080e800810f5000fcff3a00d1
:102380000630ef000830ef00e6007a00901e2000d3
:10239000808f500002003400d522a8000000060003
:1023a000a0162000808f500008003c00d0102000b4
:1023b000808f500007003c00700c2000808f500080
:1023c00006003400d402a80000000600d542a80090
:1023d00000000600d562a8000000060030092000b9
:1023e000808f500005003c00d0062000808f5000f8
:1023f00004003400d442a80000000600d422a80043
:102400000000060000052000808f5000020034000c
:10241000d462a80000000600b0032000808f5000a6
:1024200002003400d482a80000000600c002200090
:10243000808f500002003400d4a2a80000000600e3
:1024400000022000808f500002003400d4c2a80097
:1024500000000600f88f500002003400d4e2a8000b
:1024600000000600f18f500002003400e002a800d6
:1024700000000600ed8f500002003400e022a800aa
:1024800000000600e98f500002003400e622a80098
:1024900000000600e68f500002003400e602a800ab
:1024a00000000600e48f500002003400e7c2a800dc
:1024b00000000600e48f500004003200e28f50005c
:1024c00004003400e7a2a80000000600e782a8008c
:1024d00000000600e28f5000040032000100e0001e
:1024e00001003400e6c2a80000000600e7e2a800f0
:1024f000000006002800fa00881f7800e10f500055
:10250000ba04320007003900e20f5000390c3200e3
:10251000e30f50008a0b32004f0478000080fa006d
:1025200000000600d422ef00e622ef00e022ef00d8
:10253000c822ef00548080000400e0007e0b3a00c7
:10254000e10f520001003600e7e2a800e20f52005e
:10255000750b3e00e30f52006f0b3e00e40f52007c
:10256000690b3e00e50f5200630b3e00e60f520080
:102570005d0b3e00e70f5200570b3e00e80f520084
:10258000510b3e00e90f52004b0b3e00ea0f520088
:10259000450b3e00eb0f52003f0b3e00ec0f52008c
:1025a000390b3e00ed0f5200330b3e00ee0f520090
:1025b0002d0b3e00ef0f5200270b3e00f00f520094
:1025c000210b3e00f10f52001b0b3e00f20f520098
:1025d000150b3e00f30f52000f0b3e00d502a80072
:1025e000800c2000000000000000e900fdff3a0020
:1025f000d502a900a01688003017880000178800af
:1026000040168800608080000000e000000b3a0067
:10261000e10f500001003600e7e2a800e20f500091
:10262000f70a3e00e30f5000f10a3e00e40f5000ad
:10263000eb0a3e00e50f5000e50a3e00e60f5000b1
:10264000df0a3e00e70f5000d90a3e00e80f5000b5
:10265000d30a3e00e90f5000cd0a3e00ea0f5000b9
:10266000c70a3e00eb0f5000c10a3e00ec0f5000bd
:10267000bb0a3e00ed0f5000b50a3e00ee0f5000c1
:10268000af0a3e00ef0f5000a90a3e00f00f5000c5
:10269000a30a3e00f10f50009d0a3e00f20f5000c9
:1026a000970a3e00f30f5000910a3e00e642a80050
:1026b000800c2000000000000000e900fdff3a004f
:1026c000e642a900a016880030178800001788008d
:1026d00040168800708080000000e000820a3a0006
:1026e000e10f500001003600e7e2a800e20f5000c1
:1026f000790a3e00e30f5000730a3e00e40f5000d9
:102700006d0a3e00e50f5000670a3e00e60f5000dc
:10271000610a3e00e70f50005b0a3e00e80f5000e0
:10272000550a3e00e90f50004f0a3e00ea0f5000e4
:10273000490a3e00eb0f5000430a3e00ec0f5000e8
:102740003d0a3e00ed0f5000370a3e00ee0f5000ec
:10275000310a3e00ef0f50002b0a3e00f00f5000f0
:10276000250a3e00f10f50001f0a3e00f20f5000f4
:10277000190a3e00f30f5000130a3e00e662a8005b
:10278000800c2000000000000000e900fdff3a007e
:10279000e662a900a016880030178800001788009c
:1027a00040168800808080000000e000040a3a00a3
:1027b000e10f500001003600e7e2a800e20f5000f0
:1027c000fb093e00e30f5000f5093e00e40f500006
:1027d000ef093e00e50f5000e9093e00e60f50000a
:1027e000e3093e00e70f5000dd093e00e80f50000e
:1027f000d7093e00e90f5000d1093e00ea0f500012
:10280000cb093e00eb0f5000c5093e00ec0f500015
:10281000bf093e00ed0f5000b9093e00ee0f500019
:10282000b3093e00ef0f5000ad093e00f00f50001d
:10283000a7093e00f10f5000a1093e00f20f500021
:102840009b093e00f30f500095093e00e0c2a8002e
:10285000800c2000000000000000e900fdff3a00ad
:10286000e0c2a900a0168800301788000017880071
:1028700040168800908080000000e00086093a0041
:10288000e10f500001003600e7e2a800e20f50001f
:102890007d093e00e30f500077093e00e40f500031
:1028a00071093e00e50f50006b093e00e60f500035
:1028b00065093e00e70f50005f093e00e80f500039
:1028c00059093e00e90f500053093e00ea0f50003d
:1028d0004d093e00eb0f500047093e00ec0f500041
:1028e00041093e00ed0f50003b093e00ee0f500045
:1028f00035093e00ef0f50002f093e00f00f500049
:1029000029093e00f10f500023093e00f20f50004c
:102910001d093e00f30f500017093e00e042a800d9
:10292000800c2000000000000000e900fdff3a00dc
:10293000e042a900a0168800301788000017880020
:1029400040168800a08080000000e00008093a00de
:10295000e10f500001003600e7e2a800e20f50004e
:10296000ff083e00e30f5000f9083e00e40f50005e
:10297000f3083e00e50f5000ed083e00e60f500062
:10298000e7083e00e70f5000e1083e00e80f500066
:10299000db083e00e90f5000d5083e00ea0f50006a
:1029a000cf083e00eb0f5000c9083e00ec0f50006e
:1029b000c3083e00ed0f5000bd083e00ee0f500072
:1029c000b7083e00ef0f5000b1083e00f00f500076
:1029d000ab083e00f10f5000a5083e00f20f50007a
:1029e0009f083e00f30f500099083e00e0a2a800a7
:1029f000800c2000000000000000e900fdff3a000c
:102a0000e0a2a900a01688003017880000178800ef
:102a100040168800b08080000000e0008a083a007c
:102a2000e10f500001003600e7e2a800e20f50007d
:102a300081083e00e30f50007b083e00e40f500089
:102a400075083e00e50f50006f083e00e60f50008d
:102a500069083e00e70f500063083e00e80f500091
:102a60005d083e00e90f500057083e00ea0f500095
:102a700051083e00eb0f50004b083e00ec0f500099
:102a800045083e00ed0f50003f083e00ee0f50009d
:102a900039083e00ef0f500033083e00f00f5000a1
:102aa0002d083e00f10f500027083e00f20f5000a5
:102ab00021083e00f30f50001b083e00e062a80012
:102ac000800c2000000000000000e900fdff3a003b
:102ad000e062a900a016880030178800001788005f
:102ae00040168800c08080000000e0000c083a001a
:102af000e10f500001003600e7e2a800e20f5000ad
:102b000003083e00e30f5000fd073e00e40f5000b5
:102b1000f7073e00e50f5000f1073e00e60f5000ba
:102b2000eb073e00e70f5000e5073e00e80f5000be
:102b3000df073e00e90f5000d9073e00ea0f5000c2
:102b4000d3073e00eb0f5000cd073e00ec0f5000c6
:102b5000c7073e00ed0f5000c1073e00ee0f5000ca
:102b6000bb073e00ef0f5000b5073e00f00f5000ce
:102b7000af073e00f10f5000a9073e00f20f5000d2
:102b8000a3073e00f30f50009d073e00e082a8001f
:102b9000800c2000000000000000e900fdff3a006a
:102ba000e082a900a016880030178800001788006e
:102bb00040168800d08080000000e0008e073a00b8
:102bc000e10f500001003600e7e2a800e20f5000dc
:102bd00085073e00e30f50007f073e00e40f5000e2
:102be00079073e00e50f500073073e00e60f5000e6
:102bf0006d073e00e70f500067073e00e80f5000ea
:102c000061073e00e90f50005b073e00ea0f5000ed
:102c100055073e00eb0f50004f073e00ec0f5000f1
:102c200049073e00ed0f500043073e00ee0f5000f5
:102c30003d073e00ef0f500037073e00f00f5000f9
:102c400031073e00f10f50002b073e00f20f5000fd
:102c500025073e00f30f50001f073e00c9e2a80001
:102c6000800c2000000000000000e900fdff3a0099
:102c7000c9e2a900a0168800301788000017880054
:102c800040168800e08080000000e00010073a0055
:102c9000e10f500001003600e7e2a800e20f50000b
:102ca00007073e00e30f500001073e00e40f50000d
:102cb000fb063e00e50f5000f5063e00e60f500013
:102cc000ef063e00e70f5000e9063e00e80f500017
:102cd000e3063e00e90f5000dd063e00ea0f50001b
:102ce000d7063e00eb0f5000d1063e00ec0f50001f
:102cf000cb063e00ed0f5000c5063e00ee0f500023
:102d0000bf063e00ef0f5000b9063e00f00f500026
:102d1000b3063e00f10f5000ad063e00f20f50002a
:102d2000a7063e00f30f5000a1063e00c9c2a8004e
:102d3000800c2000000000000000e900fdff3a00c8
:102d4000c9c2a900a01688003017880000178800a3
:102d500040168800f08080000000e00092063a00f3
:102d6000e10f500001003600e7e2a800e20f50003a
:102d700089063e00e30f500083063e00e40f50003a
:102d80007d063e00e50f500077063e00e60f50003e
:102d900071063e00e70f50006b063e00e80f500042
:102da00065063e00e90f50005f063e00ea0f500046
:102db00059063e00eb0f500053063e00ec0f50004a
:102dc0004d063e00ed0f500047063e00ee0f50004e
:102dd00041063e00ef0f50003b063e00f00f500052
:102de00035063e00f10f50002f063e00f20f500056
:102df00029063e00f30f500023063e00c9a2a8009a
:102e0000800c2000000000000000e900fdff3a00f7
:102e1000c9a2a900a01688003017880000178800f2
:102e200040168800008180000000e00014063a008f
:102e3000e10f500001003600e7e2a800e20f500069
:102e40000b063e00e30f500005063e00e40f500065
:102e5000ff053e00e50f5000f9053e00e60f50006b
:102e6000f3053e00e70f5000ed053e00e80f50006f
:102e7000e7053e00e90f5000e1053e00ea0f500073
:102e8000db053e00eb0f5000d5053e00ec0f500077
:102e9000cf053e00ed0f5000c9053e00ee0f50007b
:102ea000c3053e00ef0f5000bd053e00f00f50007f
:102eb000b7053e00f10f5000b1053e00f20f500083
:102ec000ab053e00f30f5000a5053e00c982a800e7
:102ed000800c2000000000000000e900fdff3a0027
:102ee000c982a900a0168800301788000017880042
:102ef00040168800108180000000e00096053a002e
:102f0000e10f500001003600e7e2a800e20f500098
:102f10008d053e00e30f500087053e00e40f500092
:102f200081053e00e50f50007b053e00e60f500096
:102f300075053e00e70f50006f053e00e80f50009a
:102f400069053e00e90f500063053e00ea0f50009e
:102f50005d053e00eb0f500057053e00ec0f5000a2
:102f600051053e00ed0f50004b053e00ee0f5000a6
:102f700045053e00ef0f50003f053e00f00f5000aa
:102f800039053e00f10f500033053e00f20f5000ae
:102f90002d053e00f30f500027053e00c962a80032
:102fa000800c2000000000000000e900fdff3a0056
:102fb000c962a900a0168800301788000017880091
:102fc00040168800208180000000e00018053a00cb
:102fd000e10f500001003600e7e2a800e20f5000c8
:102fe0000f053e00e30f500009053e00e40f5000be
:102ff00003053e00e50f5000fd043e00e60f5000c3
:10300000f7043e00e70f5000f1043e00e80f5000c7
:10301000eb043e00e90f5000e5043e00ea0f5000cb
:10302000df043e00eb0f5000d9043e00ec0f5000cf
:10303000d3043e00ed0f5000cd043e00ee0f5000d3
:10304000c7043e00ef0f5000c1043e00f00f5000d7
:10305000bb043e00f10f5000b5043e00f20f5000db
:10306000af043e00f30f5000a9043e00c942a8007f
:10307000800c2000000000000000e900fdff3a0085
:10308000c942a900a01688003017880000178800e0
:1030900040168800308180000000e0009a043a0069
:1030a000e10f500001003600e7e2a800e20f5000f7
:1030b00091043e00e30f50008b043e00e40f5000eb
:1030c00085043e00e50f50007f043e00e60f5000ef
:1030d00079043e00e70f500073043e00e80f5000f3
:1030e0006d043e00e90f500067043e00ea0f5000f7
:1030f00061043e00eb0f50005b043e00ec0f5000fb
:1031000055043e00ed0f50004f043e00ee0f5000fe
:1031100049043e00ef0f500043043e00f00f500002
:103120003d043e00f10f500037043e00f20f500006
:1031300031043e00f30f50002b043e00c8a2a8004b
:10314000800c2000000000000000e900fdff3a00b4
:10315000c8a2a900a01688003017880000178800b0
:1031600040168800408180000000e0001c043a0006
:10317000e10f500001003600e7e2a800e20f500026
:1031800013043e00e30f50000d043e00e40f500016
:1031900007043e00e50f500001043e00e60f50001a
:1031a000fb033e00e70f5000f5033e00e80f500020
:1031b000ef033e00e90f5000e9033e00ea0f500024
:1031c000e3033e00eb0f5000dd033e00ec0f500028
:1031d000d7033e00ed0f5000d1033e00ee0f50002c
:1031e000cb033e00ef0f5000c5033e00f00f500030
:1031f000bf033e00f10f5000b9033e00f20f500034
:10320000b3033e00f30f5000ad033e00c882a80098
:10321000800c2000000000000000e900fdff3a00e3
:10322000c882a900a01688003017880000178800ff
:1032300040168800508180000000e0009e033a00a4
:10324000e10f500001003600e7e2a800e20f500055
:1032500095033e00e30f50008f033e00e40f500043
:1032600089033e00e50f500083033e00e60f500047
:103270007d033e00e70f500077033e00e80f50004b
:1032800071033e00e90f50006b033e00ea0f50004f
:1032900065033e00eb0f50005f033e00ec0f500053
:1032a00059033e00ed0f500053033e00ee0f500057
:1032b0004d033e00ef0f500047033e00f00f50005b
:1032c00041033e00f10f50003b033e00f20f50005f
:1032d00035033e00f30f50002f033e00c862a800e4
:1032e000800c2000000000000000e900fdff3a0013
:1032f000c862a900a016880030178800001788004f
:1033000040168800608180000000e00020033a0041
:10331000e10f500001003600e7e2a800e20f500084
:1033200017033e00e30f500011033e00e40f50006e
:103330000b033e00e50f500005033e00e60f500072
:10334000ff023e00e70f5000f9023e00e80f500078
:10335000f3023e00e90f5000ed023e00ea0f50007c
:10336000e7023e00eb0f5000e1023e00ec0f500080
:10337000db023e00ed0f5000d5023e00ee0f500084
:10338000cf023e00ef0f5000c9023e00f00f500088
:10339000c3023e00f10f5000bd023e00f20f50008c
:1033a000b7023e00f30f5000b1023e00c842a80031
:1033b000800c2000000000000000e900fdff3a0042
:1033c000c842a900a016880030178800001788009e
:1033d00040168800708180000000e000a2023a00e0
:1033e000e10f500001003600e7e2a800e20f5000b4
:1033f00099023e00e30f500093023e00e40f50009c
:103400008d023e00e50f500087023e00e60f50009f
:1034100081023e00e70f50007b023e00e80f5000a3
:1034200075023e00e90f50006f023e00ea0f5000a7
:1034300069023e00eb0f500063023e00ec0f5000ab
:103440005d023e00ed0f500057023e00ee0f5000af
:1034500051023e00ef0f50004b023e00f00f5000b3
:1034600045023e00f10f50003f023e00f20f5000b7
:1034700039023e00f30f500033023e00c8e2a800bc
:10348000800c2000000000000000e900fdff3a0071
:10349000c8e2a900a016880030178800001788002d
:1034a00040168800808180000000e00024023a007d
:1034b000e10f500001003600e7e2a800e20f5000e3
:1034c0001b023e00e30f500015023e00e40f5000c7
:1034d0000f023e00e50f500009023e00e60f5000cb
:1034e00003023e00e70f5000fd013e00e80f5000d0
:1034f000f7013e00e90f5000f1013e00ea0f5000d5
:10350000eb013e00eb0f5000e5013e00ec0f5000d8
:10351000df013e00ed0f5000d9013e00ee0f5000dc
:10352000d3013e00ef0f5000cd013e00f00f5000e0
:10353000c7013e00f10f5000c1013e00f20f5000e4
:10354000bb013e00f30f5000b5013e00c8c2a80009
:10355000800c2000000000000000e900fdff3a00a0
:10356000c8c2a9002308210062fd2f000f014100fd
:10357000a50a2100930078000100e00099003400c2
:103580001000200000097800808f500002003400f5
:103590002000200000097800e28f50000200340073
:1035a0003000200000097800e38f50000200340052
:1035b0004000200000097800e48f50000200340031
:1035c0005000200000097800e68f5000020034000f
:1035d0006000200000097800e98f500002003400ec
:1035e0007000200000097800ed8f500002003400c8
:1035f0008000200000097800f18f500002003400a4
:103600009000200000097800f88f5000020034007c
:10361000a00020000009780000022000808f5000e8
:1036200002003400b000200000097800c002200031
:10363000808f500002003400c00020000009780094
:10364000b0032000808f500002003400d000200022
:103650000009780000052000808f5000020034002f
:10366000e000200000097800d0062000808f500084
:1036700002003400f000200000097800300920002a
:10368000808f500002003400000120000009780003
:10369000700c2000808f50000200340010012000c8
:1036a00000097800d0102000808f50000200340004
:1036b0002001200000097800a0162000808f500013
:1036c000020034003001200000097800901e200024
:1036d000808f500002003400400120000009780073
:1036e0008381e8000281e800838f5200a1ff3a0045
:1036f000308080004180800002052000820f500051
:10370000e08f58002c013c00d422ef00e622ef00ad
:10371000e022ef00c822ef000400e00024013a009c
:10372000e10f520001003600e7e2a800e20f52006c
:103730001b013e00e30f520015013e00e40f520052
:103740000f013e00e50f520009013e00e60f520056
:1037500003013e00e70f5200fd003e00e80f52005b
:10376000f7003e00e90f5200f1003e00ea0f520060
:10377000eb003e00eb0f5200e5003e00ec0f520064
:10378000df003e00ed0f5200d9003e00ee0f520068
:10379000d3003e00ef0f5200cd003e00f00f52006c
:1037a000c7003e00f10f5200c1003e00f20f520070
:1037b000bb003e00f30f5200b1003e00308080009d
:1037c0004180800061004000e08048003080880037
:1037d000418088004f0478000080fa000000060055
:1037e00050fb37000009eb006fff37000000eb00d3
:1037f00084f70700d502a800800c2000000000001c
:103800000000e900fdff3a00d502a90010002000e9
:103810007cf70700e642a800800c200000000000b2
:103820000000e900fdff3a00e642a9002000200068
:1038300074f70700e662a800800c2000000000007a
:103840000000e900fdff3a00e662a9003000200018
:103850006cf70700e0c2a800800c20000000000008
:103860000000e900fdff3a00e0c2a900400020008e
:1038700064f70700e042a800800c20000000000070
:103880000000e900fdff3a00e042a90050002000de
:103890005cf70700e0a2a800800c200000000000f8
:1038a0000000e900fdff3a00e0a2a900600020004e
:1038b00054f70700e062a800800c20000000000020
:1038c0000000e900fdff3a00e062a900700020005e
:1038d0004cf70700e082a800800c200000000000e8
:1038e0000000e900fdff3a00e082a900800020000e
:1038f00044f70700c9e2a800800c20000000000087
:103900000000e900fdff3a00c9e2a9009000200094
:103910003cf70700c9c2a800800c2000000000008e
:103920000000e900fdff3a00c9c2a900a000200084
:1039300034f70700c9a2a800800c20000000000096
:103940000000e900fdff3a00c9a2a900b000200074
:103950002cf70700c982a800800c2000000000009e
:103960000000e900fdff3a00c982a900c000200064
:1039700024f70700c962a800800c200000000000a6
:103980000000e900fdff3a00c962a900d000200054
:103990001cf70700c942a800800c200000000000ae
:1039a0000000e900fdff3a00c942a900e000200044
:1039b00014f70700c8a2a800800c20000000000037
:1039c0000000e900fdff3a00c8a2a900f0002000b5
:1039d0000cf70700c882a800800c2000000000003f
:1039e0000000e900fdff3a00c882a90000012000a4
:1039f00004f70700c862a800800c20000000000047
:103a00000000e900fdff3a00c862a9001001200093
:103a1000fcf60700c842a800800c2000000000004f
:103a20000000e900fdff3a00c842a9002001200083
:103a3000f4f60700c8e2a800800c20000000000097
:103a40000000e900fdff3a00c8e2a90030012000b3
:103a5000ecf60700c8c2a800800c2000000000009f
:103a60000000e900fdff3a00c8c2a900e5f6070022
:103a70004f0478000080fa0000000600a9fa370021
:103a8000d522a80030808000418080006100400085
:103a9000e080480030808800418088004dff37007a
:103aa000d542a800f30f520044ff3600f4ff370060
:103ab000d562a800f20f52003eff3600f8ff370033
:103ac000d402a800f10f520038ff3600f8ff37008b
:103ad000d422a800f00f520032ff3600f8ff370062
:103ae000d442a800ef0f52002cff3600f8ff370039
:103af000d462a800ee0f520026ff3600f8ff370010
:103b0000d482a800ed0f520020ff3600f8ff3700e6
:103b1000d4a2a800ec0f52001aff3600f8ff3700bd
:103b2000d4c2a800eb0f520014ff3600f8ff370094
:103b3000d4e2a800ea0f52000eff3600f8ff37006b
:103b4000e002a800e90f520008ff3600f8ff370036
:103b5000e022a800e80f520002ff3600f8ff37000d
:103b6000e622a800e70f5200fcfe3600f8ff3700ff
:103b7000e602a800e60f5200f6fe3600f8ff370016
:103b8000e7c2a800e50f5200f0fe3600f8ff37004c
:103b9000e782a800e40f5200eafe3600f8ff370083
:103ba000e7a2a800e30f5200e4fe3600f8ff37005a
:103bb000e6c2a800dafe370063fd2f008f814100c6
:103bc000a20021000f82e90013007800920f50003c
:103bd000860636000009780080007800810f5000ca
:103be000010031000109e9008381e8000281e80059
:103bf000830f5200f4ff3a000630ef000830ef0068
:103c000054808000d422ef00e622ef00e022ef0093
:103c1000c822ef000400e000c1fe3200e4ff3700dc
:103c2000d522a800c8c2a800800c200049fe370099
:103c3000d542a800f30f500044fe3600f8ff3700cd
:103c4000d562a800f20f50003efe3600f8ff3700a4
:103c5000d402a800f10f500038fe3600f8ff3700fc
:103c6000d422a800f00f500032fe3600f8ff3700d3
:103c7000d442a800ef0f50002cfe3600f8ff3700aa
:103c8000d462a800ee0f500026fe3600f8ff370081
:103c9000d482a800ed0f500020fe3600f8ff370058
:103ca000d4a2a800ec0f50001afe3600f8ff37002f
:103cb000d4c2a800eb0f500014fe3600f8ff370006
:103cc000d4e2a800ea0f50000efe3600f8ff3700dd
:103cd000e002a800e90f500008fe3600f8ff3700a8
:103ce000e022a800e80f500002fe3600f8ff37007f
:103cf000e622a800e70f5000fcfd3600f8ff370071
:103d0000e602a800e60f5000f6fd3600f8ff370087
:103d1000e7c2a800e50f5000f0fd3600f8ff3700bd
:103d2000e782a800e40f5000eafd3600f8ff3700f4
:103d3000e7a2a800e30f5000e4fd3600f8ff3700cb
:103d4000e6c2a800dafd3700d522a800c8e2a80024
:103d5000800c2000cbfd3700d542a800f30f5000a7
:103d6000c6fd3600f8ff3700d562a800f20f5000fc
:103d7000c0fd3600f8ff3700d402a800f10f500054
:103d8000bafd3600f8ff3700d422a800f00f50002b
:103d9000b4fd3600f8ff3700d442a800ef0f500002
:103da000aefd3600f8ff3700d462a800ee0f5000d9
:103db000a8fd3600f8ff3700d482a800ed0f5000b0
:103dc000a2fd3600f8ff3700d4a2a800ec0f500087
:103dd0009cfd3600f8ff3700d4c2a800eb0f50005e
:103de00096fd3600f8ff3700d4e2a800ea0f500035
:103df00090fd3600f8ff3700e002a800e90f500000
:103e00008afd3600f8ff3700e022a800e80f5000d6
:103e100084fd3600f8ff3700e622a800e70f5000c7
:103e20007efd3600f8ff3700e602a800e60f5000de
:103e300078fd3600f8ff3700e7c2a800e50f500014
:103e400072fd3600f8ff3700e782a800e40f50004b
:103e50006cfd3600f8ff3700e7a2a800e30f500022
:103e600066fd3600f8ff3700e6c2a8005cfd3700ab
:103e7000d522a800c842a800800c20004dfd3700c4
:103e8000d542a800f30f500048fd3600f8ff370078
:103e9000d562a800f20f500042fd3600f8ff37004f
:103ea000d402a800f10f50003cfd3600f8ff3700a7
:103eb000d422a800f00f500036fd3600f8ff37007e
:103ec000d442a800ef0f500030fd3600f8ff370055
:103ed000d462a800ee0f50002afd3600f8ff37002c
:103ee000d482a800ed0f500024fd3600f8ff370003
:103ef000d4a2a800ec0f50001efd3600f8ff3700da
:103f0000d4c2a800eb0f500018fd3600f8ff3700b0
:103f1000d4e2a800ea0f500012fd3600f8ff370087
:103f2000e002a800e90f50000cfd3600f8ff370052
:103f3000e022a800e80f500006fd3600f8ff370029
:103f4000e622a800e70f500000fd3600f8ff37001a
:103f5000e602a800e60f5000fafc3600f8ff370032
:103f6000e7c2a800e50f5000f4fc3600f8ff370068
:103f7000e782a800e40f5000eefc3600f8ff37009f
:103f8000e7a2a800e30f5000e8fc3600f8ff370076
:103f9000e6c2a800defc3700d522a800c862a8004f
:103fa000800c2000cffc3700d542a800f30f500052
:103fb000cafc3600f8ff3700d562a800f20f5000a7
:103fc000c4fc3600f8ff3700d402a800f10f5000ff
:103fd000befc3600f8ff3700d422a800f00f5000d6
:103fe000b8fc3600f8ff3700d442a800ef0f5000ad
:103ff000b2fc3600f8ff3700d462a800ee0f500084
:10400000acfc3600f8ff3700d482a800ed0f50005a
:10401000a6fc3600f8ff3700d4a2a800ec0f500031
:10402000a0fc3600f8ff3700d4c2a800eb0f500008
:104030009afc3600f8ff3700d4e2a800ea0f5000df
:1040400094fc3600f8ff3700e002a800e90f5000aa
:104050008efc3600f8ff3700e022a800e80f500081
:1040600088fc3600f8ff3700e622a800e70f500072
:1040700082fc3600f8ff3700e602a800e60f500089
:104080007cfc3600f8ff3700e7c2a800e50f5000bf
:1040900076fc3600f8ff3700e782a800e40f5000f6
:1040a00070fc3600f8ff3700e7a2a800e30f5000cd
:1040b0006afc3600f8ff3700e6c2a80060fc370053
:1040c000d522a800c882a800800c200051fc37002f
:1040d000d542a800f30f50004cfc3600f8ff370023
:1040e000d562a800f20f500046fc3600f8ff3700fa
:1040f000d402a800f10f500040fc3600f8ff370052
:10410000d422a800f00f50003afc3600f8ff370028
:10411000d442a800ef0f500034fc3600f8ff3700ff
:10412000d462a800ee0f50002efc3600f8ff3700d6
:10413000d482a800ed0f500028fc3600f8ff3700ad
:10414000d4a2a800ec0f500022fc3600f8ff370084
:10415000d4c2a800eb0f50001cfc3600f8ff37005b
:10416000d4e2a800ea0f500016fc3600f8ff370032
:10417000e002a800e90f500010fc3600f8ff3700fd
:10418000e022a800e80f50000afc3600f8ff3700d4
:10419000e622a800e70f500004fc3600f8ff3700c5
:1041a000e602a800e60f5000fefb3600f8ff3700dd
:1041b000e7c2a800e50f5000f8fb3600f8ff370013
:1041c000e782a800e40f5000f2fb3600f8ff37004a
:1041d000e7a2a800e30f5000ecfb3600f8ff370021
:1041e000e6c2a800e2fb3700d522a800c8a2a800ba
:1041f000800c2000d3fb3700d542a800f30f5000fd
:10420000cefb3600f8ff3700d562a800f20f500051
:10421000c8fb3600f8ff3700d402a800f10f5000a9
:10422000c2fb3600f8ff3700d422a800f00f500080
:10423000bcfb3600f8ff3700d442a800ef0f500057
:10424000b6fb3600f8ff3700d462a800ee0f50002e
:10425000b0fb3600f8ff3700d482a800ed0f500005
:10426000aafb3600f8ff3700d4a2a800ec0f5000dc
:10427000a4fb3600f8ff3700d4c2a800eb0f5000b3
:104280009efb3600f8ff3700d4e2a800ea0f50008a
:1042900098fb3600f8ff3700e002a800e90f500055
:1042a00092fb3600f8ff3700e022a800e80f50002c
:1042b0008cfb3600f8ff3700e622a800e70f50001d
:1042c00086fb3600f8ff3700e602a800e60f500034
:1042d00080fb3600f8ff3700e7c2a800e50f50006a
:1042e0007afb3600f8ff3700e782a800e40f5000a1
:1042f00074fb3600f8ff3700e7a2a800e30f500078
:104300006efb3600f8ff3700e6c2a80064fb3700fa
:10431000d522a800c942a800800c200055fb370018
:10432000d542a800f30f500050fb3600f8ff3700cd
:10433000d562a800f20f50004afb3600f8ff3700a4
:10434000d402a800f10f500044fb3600f8ff3700fc
:10435000d422a800f00f50003efb3600f8ff3700d3
:10436000d442a800ef0f500038fb3600f8ff3700aa
:10437000d462a800ee0f500032fb3600f8ff370081
:10438000d482a800ed0f50002cfb3600f8ff370058
:10439000d4a2a800ec0f500026fb3600f8ff37002f
:1043a000d4c2a800eb0f500020fb3600f8ff370006
:1043b000d4e2a800ea0f50001afb3600f8ff3700dd
:1043c000e002a800e90f500014fb3600f8ff3700a8
:1043d000e022a800e80f50000efb3600f8ff37007f
:1043e000e622a800e70f500008fb3600f8ff370070
:1043f000e602a800e60f500002fb3600f8ff370087
:10440000e7c2a800e50f5000fcfa3600f8ff3700bd
:10441000e782a800e40f5000f6fa3600f8ff3700f4
:10442000e7a2a800e30f5000f0fa3600f8ff3700cb
:10443000e6c2a800e6fa3700d522a800c962a800a3
:10444000800c2000d7fa3700d542a800f30f5000a7
:10445000d2fa3600f8ff3700d562a800f20f5000fc
:10446000ccfa3600f8ff3700d402a800f10f500054
:10447000c6fa3600f8ff3700d422a800f00f50002b
:10448000c0fa3600f8ff3700d442a800ef0f500002
:10449000bafa3600f8ff3700d462a800ee0f5000d9
:1044a000b4fa3600f8ff3700d482a800ed0f5000b0
:1044b000aefa3600f8ff3700d4a2a800ec0f500087
:1044c000a8fa3600f8ff3700d4c2a800eb0f50005e
:1044d000a2fa3600f8ff3700d4e2a800ea0f500035
:1044e0009cfa3600f8ff3700e002a800e90f500000
:1044f00096fa3600f8ff3700e022a800e80f5000d7
:1045000090fa3600f8ff3700e622a800e70f5000c7
:104510008afa3600f8ff3700e602a800e60f5000de
:1045200084fa3600f8ff3700e7c2a800e50f500014
:104530007efa3600f8ff3700e782a800e40f50004b
:1045400078fa3600f8ff3700e7a2a800e30f500022
:1045500072fa3600f8ff3700e6c2a80068fa3700a2
:10456000d522a800c982a800800c200059fa370083
:10457000d542a800f30f500054fa3600f8ff370078
:10458000d562a800f20f50004efa3600f8ff37004f
:10459000d402a800f10f500048fa3600f8ff3700a7
:1045a000d422a800f00f500042fa3600f8ff37007e
:1045b000d442a800ef0f50003cfa3600f8ff370055
:1045c000d462a800ee0f500036fa3600f8ff37002c
:1045d000d482a800ed0f500030fa3600f8ff370003
:1045e000d4a2a800ec0f50002afa3600f8ff3700da
:1045f000d4c2a800eb0f500024fa3600f8ff3700b1
:10460000d4e2a800ea0f50001efa3600f8ff370087
:10461000e002a800e90f500018fa3600f8ff370052
:10462000e022a800e80f500012fa3600f8ff370029
:10463000e622a800e70f50000cfa3600f8ff37001a
:10464000e602a800e60f500006fa3600f8ff370031
:10465000e7c2a800e50f500000fa3600f8ff370067
:10466000e782a800e40f5000faf93600f8ff37009f
:10467000e7a2a800e30f5000f4f93600f8ff370076
:10468000e6c2a800eaf93700d522a800c9a2a8000e
:10469000800c2000dbf93700d542a800f30f500052
:1046a000d6f93600f8ff3700d562a800f20f5000a7
:1046b000d0f93600f8ff3700d402a800f10f5000ff
:1046c000caf93600f8ff3700d422a800f00f5000d6
:1046d000c4f93600f8ff3700d442a800ef0f5000ad
:1046e000bef93600f8ff3700d462a800ee0f500084
:1046f000b8f93600f8ff3700d482a800ed0f50005b
:10470000b2f93600f8ff3700d4a2a800ec0f500031
:10471000acf93600f8ff3700d4c2a800eb0f500008
:10472000a6f93600f8ff3700d4e2a800ea0f5000df
:10473000a0f93600f8ff3700e002a800e90f5000aa
:104740009af93600f8ff3700e022a800e80f500081
:1047500094f93600f8ff3700e622a800e70f500072
:104760008ef93600f8ff3700e602a800e60f500089
:1047700088f93600f8ff3700e7c2a800e50f5000bf
:1047800082f93600f8ff3700e782a800e40f5000f6
:104790007cf93600f8ff3700e7a2a800e30f5000cd
:1047a00076f93600f8ff3700e6c2a8006cf937004a
:1047b000d522a800c9c2a800800c20005df93700ee
:1047c000d542a800f30f500058f93600f8ff370023
:1047d000d562a800f20f500052f93600f8ff3700fa
:1047e000d402a800f10f50004cf93600f8ff370052
:1047f000d422a800f00f500046f93600f8ff370029
:10480000d442a800ef0f500040f93600f8ff3700ff
:10481000d462a800ee0f50003af93600f8ff3700d6
:10482000d482a800ed0f500034f93600f8ff3700ad
:10483000d4a2a800ec0f50002ef93600f8ff370084
:10484000d4c2a800eb0f500028f93600f8ff37005b
:10485000d4e2a800ea0f500022f93600f8ff370032
:10486000e002a800e90f50001cf93600f8ff3700fd
:10487000e022a800e80f500016f93600f8ff3700d4
:10488000e622a800e70f500010f93600f8ff3700c5
:10489000e602a800e60f50000af93600f8ff3700dc
:1048a000e7c2a800e50f500004f93600f8ff370012
:1048b000e782a800e40f5000fef83600f8ff37004a
:1048c000e7a2a800e30f5000f8f83600f8ff370021
:1048d000e6c2a800eef83700d522a800c9e2a80079
:1048e000800c2000dff83700d542a800f30f5000fd
:1048f000daf83600f8ff3700d562a800f20f500052
:10490000d4f83600f8ff3700d402a800f10f5000a9
:10491000cef83600f8ff3700d422a800f00f500080
:10492000c8f83600f8ff3700d442a800ef0f500057
:10493000c2f83600f8ff3700d462a800ee0f50002e
:10494000bcf83600f8ff3700d482a800ed0f500005
:10495000b6f83600f8ff3700d4a2a800ec0f5000dc
:10496000b0f83600f8ff3700d4c2a800eb0f5000b3
:10497000aaf83600f8ff3700d4e2a800ea0f50008a
:10498000a4f83600f8ff3700e002a800e90f500055
:104990009ef83600f8ff3700e022a800e80f50002c
:1049a00098f83600f8ff3700e622a800e70f50001d
:1049b00092f83600f8ff3700e602a800e60f500034
:1049c0008cf83600f8ff3700e7c2a800e50f50006a
:1049d00086f83600f8ff3700e782a800e40f5000a1
:1049e00080f83600f8ff3700e7a2a800e30f500078
:1049f0007af83600f8ff3700e6c2a80070f83700f2
:104a0000d522a800e082a800800c200061f83700c1
:104a1000d542a800f30f50005cf83600f8ff3700cd
:104a2000d562a800f20f500056f83600f8ff3700a4
:104a3000d402a800f10f500050f83600f8ff3700fc
:104a4000d422a800f00f50004af83600f8ff3700d3
:104a5000d442a800ef0f500044f83600f8ff3700aa
:104a6000d462a800ee0f50003ef83600f8ff370081
:104a7000d482a800ed0f500038f83600f8ff370058
:104a8000d4a2a800ec0f500032f83600f8ff37002f
:104a9000d4c2a800eb0f50002cf83600f8ff370006
:104aa000d4e2a800ea0f500026f83600f8ff3700dd
:104ab000e002a800e90f500020f83600f8ff3700a8
:104ac000e022a800e80f50001af83600f8ff37007f
:104ad000e622a800e70f500014f83600f8ff370070
:104ae000e602a800e60f50000ef83600f8ff370087
:104af000e7c2a800e50f500008f83600f8ff3700bd
:104b0000e782a800e40f500002f83600f8ff3700f3
:104b1000e7a2a800e30f5000fcf73600f8ff3700cb
:104b2000e6c2a800f2f73700d522a800e062a8008c
:104b3000800c2000e3f73700d542a800f30f5000a7
:104b4000def73600f8ff3700d562a800f20f5000fc
:104b5000d8f73600f8ff3700d402a800f10f500054
:104b6000d2f73600f8ff3700d422a800f00f50002b
:104b7000ccf73600f8ff3700d442a800ef0f500002
:104b8000c6f73600f8ff3700d462a800ee0f5000d9
:104b9000c0f73600f8ff3700d482a800ed0f5000b0
:104ba000baf73600f8ff3700d4a2a800ec0f500087
:104bb000b4f73600f8ff3700d4c2a800eb0f50005e
:104bc000aef73600f8ff3700d4e2a800ea0f500035
:104bd000a8f73600f8ff3700e002a800e90f500000
:104be000a2f73600f8ff3700e022a800e80f5000d7
:104bf0009cf73600f8ff3700e622a800e70f5000c8
:104c000096f73600f8ff3700e602a800e60f5000de
:104c100090f73600f8ff3700e7c2a800e50f500014
:104c20008af73600f8ff3700e782a800e40f50004b
:104c300084f73600f8ff3700e7a2a800e30f500022
:104c40007ef73600f8ff3700e6c2a80074f7370099
:104c5000d522a800e0a2a800800c200065f737004c
:104c6000d542a800f30f500060f73600f8ff370078
:104c7000d562a800f20f50005af73600f8ff37004f
:104c8000d402a800f10f500054f73600f8ff3700a7
:104c9000d422a800f00f50004ef73600f8ff37007e
:104ca000d442a800ef0f500048f73600f8ff370055
:104cb000d462a800ee0f500042f73600f8ff37002c
:104cc000d482a800ed0f50003cf73600f8ff370003
:104cd000d4a2a800ec0f500036f73600f8ff3700da
:104ce000d4c2a800eb0f500030f73600f8ff3700b1
:104cf000d4e2a800ea0f50002af73600f8ff370088
:104d0000e002a800e90f500024f73600f8ff370052
:104d1000e022a800e80f50001ef73600f8ff370029
:104d2000e622a800e70f500018f73600f8ff37001a
:104d3000e602a800e60f500012f73600f8ff370031
:104d4000e7c2a800e50f50000cf73600f8ff370067
:104d5000e782a800e40f500006f73600f8ff37009e
:104d6000e7a2a800e30f500000f73600f8ff370075
:104d7000e6c2a800f6f63700d522a800e042a80057
:104d8000800c2000e7f63700d542a800f30f500052
:104d9000e2f63600f8ff3700d562a800f20f5000a7
:104da000dcf63600f8ff3700d402a800f10f5000ff
:104db000d6f63600f8ff3700d422a800f00f5000d6
:104dc000d0f63600f8ff3700d442a800ef0f5000ad
:104dd000caf63600f8ff3700d462a800ee0f500084
:104de000c4f63600f8ff3700d482a800ed0f50005b
:104df000bef63600f8ff3700d4a2a800ec0f500032
:104e0000b8f63600f8ff3700d4c2a800eb0f500008
:104e1000b2f63600f8ff3700d4e2a800ea0f5000df
:104e2000acf63600f8ff3700e002a800e90f5000aa
:104e3000a6f63600f8ff3700e022a800e80f500081
:104e4000a0f63600f8ff3700e622a800e70f500072
:104e50009af63600f8ff3700e602a800e60f500089
:104e600094f63600f8ff3700e7c2a800e50f5000bf
:104e70008ef63600f8ff3700e782a800e40f5000f6
:104e800088f63600f8ff3700e7a2a800e30f5000cd
:104e900082f63600f8ff3700e6c2a80078f6370041
:104ea000d522a800e0c2a800800c200069f63700d7
:104eb000d542a800f30f500064f63600f8ff370023
:104ec000d562a800f20f50005ef63600f8ff3700fa
:104ed000d402a800f10f500058f63600f8ff370052
:104ee000d422a800f00f500052f63600f8ff370029
:104ef000d442a800ef0f50004cf63600f8ff370000
:104f0000d462a800ee0f500046f63600f8ff3700d6
:104f1000d482a800ed0f500040f63600f8ff3700ad
:104f2000d4a2a800ec0f50003af63600f8ff370084
:104f3000d4c2a800eb0f500034f63600f8ff37005b
:104f4000d4e2a800ea0f50002ef63600f8ff370032
:104f5000e002a800e90f500028f63600f8ff3700fd
:104f6000e022a800e80f500022f63600f8ff3700d4
:104f7000e622a800e70f50001cf63600f8ff3700c5
:104f8000e602a800e60f500016f63600f8ff3700dc
:104f9000e7c2a800e50f500010f63600f8ff370012
:104fa000e782a800e40f50000af63600f8ff370049
:104fb000e7a2a800e30f500004f63600f8ff370020
:104fc000e6c2a800faf53700d522a800e662a800dc
:104fd000800c2000ebf53700d542a800f30f5000fd
:104fe000e6f53600f8ff3700d562a800f20f500052
:104ff000e0f53600f8ff3700d402a800f10f5000aa
:10500000daf53600f8ff3700d422a800f00f500080
:10501000d4f53600f8ff3700d442a800ef0f500057
:10502000cef53600f8ff3700d462a800ee0f50002e
:10503000c8f53600f8ff3700d482a800ed0f500005
:10504000c2f53600f8ff3700d4a2a800ec0f5000dc
:10505000bcf53600f8ff3700d4c2a800eb0f5000b3
:10506000b6f53600f8ff3700d4e2a800ea0f50008a
:10507000b0f53600f8ff3700e002a800e90f500055
:10508000aaf53600f8ff3700e022a800e80f50002c
:10509000a4f53600f8ff3700e622a800e70f50001d
:1050a0009ef53600f8ff3700e602a800e60f500034
:1050b00098f53600f8ff3700e7c2a800e50f50006a
:1050c00092f53600f8ff3700e782a800e40f5000a1
:1050d0008cf53600f8ff3700e7a2a800e30f500078
:1050e00086f53600f8ff3700e6c2a8007cf53700e9
:1050f000d522a800e642a800800c20006df53700fc
:10510000d542a800f30f500068f53600f8ff3700cd
:10511000d562a800f20f500062f53600f8ff3700a4
:10512000d402a800f10f50005cf53600f8ff3700fc
:10513000d422a800f00f500056f53600f8ff3700d3
:10514000d442a800ef0f500050f53600f8ff3700aa
:10515000d462a800ee0f50004af53600f8ff370081
:10516000d482a800ed0f500044f53600f8ff370058
:10517000d4a2a800ec0f50003ef53600f8ff37002f
:10518000d4c2a800eb0f500038f53600f8ff370006
:10519000d4e2a800ea0f500032f53600f8ff3700dd
:1051a000e002a800e90f50002cf53600f8ff3700a8
:1051b000e022a800e80f500026f53600f8ff37007f
:1051c000e622a800e70f500020f53600f8ff370070
:1051d000e602a800e60f50001af53600f8ff370087
:1051e000e7c2a800e50f500014f53600f8ff3700bd
:1051f000e782a800e40f50000ef53600f8ff3700f4
:10520000e7a2a800e30f500008f53600f8ff3700ca
:10521000e6c2a800fef43700d522a800d502a800f7
:10522000800c2000eff43700d542a800f30f5200a5
:10523000eaf43600f8ff3700d562a800f20f5200fa
:10524000e4f43600f8ff3700d402a800f10f520052
:10525000def43600f8ff3700d422a800f00f520029
:10526000d8f43600f8ff3700d442a800ef0f520000
:10527000d2f43600f8ff3700d462a800ee0f5200d7
:10528000ccf43600f8ff3700d482a800ed0f5200ae
:10529000c6f43600f8ff3700d4a2a800ec0f520085
:1052a000c0f43600f8ff3700d4c2a800eb0f52005c
:1052b000baf43600f8ff3700d4e2a800ea0f520033
:1052c000b4f43600f8ff3700e002a800e90f5200fe
:1052d000aef43600f8ff3700e022a800e80f5200d5
:1052e000a8f43600f8ff3700e622a800e70f5200c6
:1052f000a2f43600f8ff3700e602a800e60f5200dd
:105300009cf43600f8ff3700e7c2a800e50f520012
:1053100096f43600f8ff3700e782a800e40f520049
:1053200090f43600f8ff3700e7a2a800e30f520020
:105330008af43600f8ff3700e6c2a80080f4370090
:105340000000eb00a9f30700d502a8000019200017
:10535000000000000000e900fdff3a00d502a900ae
:1053600010002000a1f30700e642a8000019200069
:10537000000000000000e900fdff3a00e642a9003d
:105380002000200099f30700e662a8000019200021
:10539000000000000000e900fdff3a00e662a900fd
:1053a0003000200091f30700e0c2a800001920009f
:1053b000000000000000e900fdff3a00e0c2a90083
:1053c0004000200089f30700e042a80000192000f7
:1053d000000000000000e900fdff3a00e042a900e3
:1053e0005000200081f30700e0a2a800001920006f
:1053f000000000000000e900fdff3a00e0a2a90063
:105400006000200079f30700e062a8000019200086
:10541000000000000000e900fdff3a00e062a90082
:105420007000200071f30700e082a800001920003e
:10543000000000000000e900fdff3a00e082a90042
:105440008000200069f30700c9e2a80000192000cd
:10545000000000000000e900fdff3a00c9e2a900d9
:105460009000200061f30700c9c2a80000192000c5
:10547000000000000000e900fdff3a00c9c2a900d9
:10548000a000200059f30700c9a2a80000192000bd
:10549000000000000000e900fdff3a00c9a2a900d9
:1054a000b000200051f30700c982a80000192000b5
:1054b000000000000000e900fdff3a00c982a900d9
:1054c000c000200049f30700c962a80000192000ad
:1054d000000000000000e900fdff3a00c962a900d9
:1054e000d000200041f30700c942a80000192000a5
:1054f000000000000000e900fdff3a00c942a900d9
:10550000e000200039f30700c8a2a800001920001d
:10551000000000000000e900fdff3a00c8a2a90059
:10552000f000200031f30700c882a8000019200015
:10553000000000000000e900fdff3a00c882a90059
:105540000001200029f30700c862a800001920000c
:10555000000000000000e900fdff3a00c862a90059
:105560001001200021f30700c842a8000019200004
:10557000000000000000e900fdff3a00c842a90059
:105580002001200019f30700c8e2a800001920003c
:10559000000000000000e900fdff3a00c8e2a90099
:1055a0003001200011f30700c8c2a8000019200034
:1055b000000000000000e900fdff3a00c8c2a90099
:1055c0000af30700308080004180800061004000c5
:1055d000e080480030808800418088004f047800d7
:1055e0000080fa0000000600cef337009200780039
:1055f0007af937000000eb0050f00700d502a80050
:10560000800c2000000000000000e900fdff3a00cf
:10561000d502a9001000200048f00700e642a800cb
:10562000800c2000000000000000e900fdff3a00af
:10563000e642a9002000200040f00700e662a80032
:10564000800c2000000000000000e900fdff3a008f
:10565000e662a9003000200038f00700e0c2a80090
:10566000800c2000000000000000e900fdff3a006f
:10567000e0c2a9004000200030f00700e042a8008e
:10568000800c2000000000000000e900fdff3a004f
:10569000e042a9005000200028f00700e0a2a80086
:1056a000800c2000000000000000e900fdff3a002f
:1056b000e0a2a9006000200020f00700e062a8003e
:1056c000800c2000000000000000e900fdff3a000f
:1056d000e062a9007000200018f00700e082a80036
:1056e000800c2000000000000000e900fdff3a00ef
:1056f000e082a9008000200010f00700c9e2a800a5
:10570000800c2000000000000000e900fdff3a00ce
:10571000c9e2a9009000200008f00700c9c2a80053
:10572000800c2000000000000000e900fdff3a00ae
:10573000c9c2a900a000200000f00700c9a2a8006b
:10574000800c2000000000000000e900fdff3a008e
:10575000c9a2a900b0002000f8ef0700c982a80084
:10576000800c2000000000000000e900fdff3a006e
:10577000c982a900c0002000f0ef0700c962a8009c
:10578000800c2000000000000000e900fdff3a004e
:10579000c962a900d0002000e8ef0700c942a800b4
:1057a000800c2000000000000000e900fdff3a002e
:1057b000c942a900e0002000e0ef0700c8a2a8004d
:1057c000800c2000000000000000e900fdff3a000e
:1057d000c8a2a900f0002000d8ef0700c882a800e6
:1057e000800c2000000000000000e900fdff3a00ee
:1057f000c882a90000012000d0ef0700c862a800fd
:10580000800c2000000000000000e900fdff3a00cd
:10581000c862a90010012000c8ef0700c842a80014
:10582000800c2000000000000000e900fdff3a00ad
:10583000c842a90020012000c0ef0700c8e2a8006c
:10584000800c2000000000000000e900fdff3a008d
:10585000c8e2a90030012000b8ef0700c8c2a800c4
:10586000880c2000000000000804e900fdff3a0059
:10587000c8c2a90046f0070008007800afef070093
:10588000308080004180800061004000e08048005e
:105890003080880041808800108080002180800056
:1058a00061004000e080480010808800218088006e
:1058b0004f0478000080fa000000060019f337005a
:1058c000881f7800c642a900c662a900c682a90046
:1058d000c6a2a900c6c2a900c6e2a900c742a90083
:1058e000c762a900c782a900c7a2a900c7c2a900b0
:1058f000c7e2a900cda2a800cdc2a800d202a9008b
:10590000d222a900d242a900d262a900d282a90063
:10591000d2a2a900d2c2a900d2e2a900d302a90052
:10592000d322a900d342a900d362a900de02a900b4
:10593000de22a900de42a900de62a900de82a90003
:10594000dea2a900dec2a900e402a900e422a900a7
:10595000e442a900e462a900e4c2a900e582a9002a
:10596000e5a2a900e5c2a900e5e2a900d502a900c7
:10597000e642a900e662a900e0c2a900e042a9004f
:10598000e0a2a900e062a900e082a900c9e2a900a2
:10599000c9c2a900c9a2a900c982a900c962a900f7
:1059a000c942a900c8a2a900c882a900c862a9006a
:1059b000c842a900c8e2a900c8c2a900e6c2a9005d
:1059c000e7e2a900e7a2a900e782a900e7c2a900cf
:1059d000e602a900e622a900e022a900e002a9004f
:1059e000d4e2a900d4c2a900d4a2a900d482a900fb
:1059f000d462a900d442a900d422a900d402a900eb
:105a0000d562a900d542a900d522a900cbf1070093
:105a10000840210000808000e10f50000f0032009c
:105a200000808000e30f500026003200cfc2bf008c
:105a30004500de0061006000f12c200091407800fc
:105a4000c508de00e280600001004000a9f2070006
:105a500000808000e10f5000f1ff3a0003a0200019
:105a600002402100820078000020200062ed070043
:105a700003f02f0002e02000014021008000200000
